{
	"contracts/BoxV1.sol": {
		"BoxV1": {
			"abi": [
				{
					"inputs": [],
					"name": "InvalidInitialization",
					"type": "error"
				},
				{
					"inputs": [],
					"name": "NotInitializing",
					"type": "error"
				},
				{
					"anonymous": false,
					"inputs": [
						{
							"indexed": false,
							"internalType": "uint64",
							"name": "version",
							"type": "uint64"
						}
					],
					"name": "Initialized",
					"type": "event"
				},
				{
					"inputs": [],
					"name": "call",
					"outputs": [],
					"stateMutability": "nonpayable",
					"type": "function"
				},
				{
					"inputs": [
						{
							"internalType": "uint256",
							"name": "_val",
							"type": "uint256"
						}
					],
					"name": "initialize",
					"outputs": [],
					"stateMutability": "nonpayable",
					"type": "function"
				},
				{
					"inputs": [],
					"name": "showInvoke",
					"outputs": [
						{
							"internalType": "bytes",
							"name": "",
							"type": "bytes"
						}
					],
					"stateMutability": "pure",
					"type": "function"
				},
				{
					"inputs": [],
					"name": "x",
					"outputs": [
						{
							"internalType": "uint256",
							"name": "",
							"type": "uint256"
						}
					],
					"stateMutability": "view",
					"type": "function"
				}
			],
			"devdoc": {
				"errors": {
					"InvalidInitialization()": [
						{
							"details": "The contract is already initialized."
						}
					],
					"NotInitializing()": [
						{
							"details": "The contract is not initializing."
						}
					]
				},
				"events": {
					"Initialized(uint64)": {
						"details": "Triggered when the contract has been initialized or reinitialized."
					}
				},
				"kind": "dev",
				"methods": {},
				"version": 1
			},
			"evm": {
				"assembly": "    /* \"contracts/BoxV1.sol\":121:461  contract BoxV1 is Initializable {... */\n  mstore(0x40, 0x80)\n  callvalue\n  dup1\n  iszero\n  tag_1\n  jumpi\n  0x00\n  dup1\n  revert\ntag_1:\n  pop\n  dataSize(sub_0)\n  dup1\n  dataOffset(sub_0)\n  0x00\n  codecopy\n  0x00\n  return\nstop\n\nsub_0: assembly {\n        /* \"contracts/BoxV1.sol\":121:461  contract BoxV1 is Initializable {... */\n      mstore(0x40, 0x80)\n      callvalue\n      dup1\n      iszero\n      tag_1\n      jumpi\n      0x00\n      dup1\n      revert\n    tag_1:\n      pop\n      jumpi(tag_2, lt(calldatasize, 0x04))\n      shr(0xe0, calldataload(0x00))\n      dup1\n      0x0c55699c\n      eq\n      tag_3\n      jumpi\n      dup1\n      0x28b5e32b\n      eq\n      tag_4\n      jumpi\n      dup1\n      0x75beac87\n      eq\n      tag_5\n      jumpi\n      dup1\n      0xfe4b84df\n      eq\n      tag_6\n      jumpi\n    tag_2:\n      0x00\n      dup1\n      revert\n        /* \"contracts/BoxV1.sol\":159:175  uint256 public x */\n    tag_3:\n      tag_7\n      tag_8\n      jump\t// in\n    tag_7:\n      mload(0x40)\n      tag_9\n      swap2\n      swap1\n      tag_10\n      jump\t// in\n    tag_9:\n      mload(0x40)\n      dup1\n      swap2\n      sub\n      swap1\n      return\n        /* \"contracts/BoxV1.sol\":268:319  function call() external {... */\n    tag_4:\n      tag_11\n      tag_12\n      jump\t// in\n    tag_11:\n      stop\n        /* \"contracts/BoxV1.sol\":325:459  function showInvoke() external pure returns (bytes memory) {... */\n    tag_5:\n      tag_13\n      tag_14\n      jump\t// in\n    tag_13:\n      mload(0x40)\n      tag_15\n      swap2\n      swap1\n      tag_16\n      jump\t// in\n    tag_15:\n      mload(0x40)\n      dup1\n      swap2\n      sub\n      swap1\n      return\n        /* \"contracts/BoxV1.sol\":182:262  function initialize(uint256 _val) external initializer {... */\n    tag_6:\n      tag_17\n      0x04\n      dup1\n      calldatasize\n      sub\n      dup2\n      add\n      swap1\n      tag_18\n      swap2\n      swap1\n      tag_19\n      jump\t// in\n    tag_18:\n      tag_20\n      jump\t// in\n    tag_17:\n      stop\n        /* \"contracts/BoxV1.sol\":159:175  uint256 public x */\n    tag_8:\n      sload(0x00)\n      dup2\n      jump\t// out\n        /* \"contracts/BoxV1.sol\":268:319  function call() external {... */\n    tag_12:\n        /* \"contracts/BoxV1.sol\":311:312  1 */\n      0x01\n        /* \"contracts/BoxV1.sol\":307:308  x */\n      sload(0x00)\n        /* \"contracts/BoxV1.sol\":307:312  x + 1 */\n      tag_22\n      swap2\n      swap1\n      tag_23\n      jump\t// in\n    tag_22:\n        /* \"contracts/BoxV1.sol\":303:304  x */\n      0x00\n        /* \"contracts/BoxV1.sol\":303:312  x = x + 1 */\n      dup2\n      swap1\n      sstore\n      pop\n        /* \"contracts/BoxV1.sol\":268:319  function call() external {... */\n      jump\t// out\n        /* \"contracts/BoxV1.sol\":325:459  function showInvoke() external pure returns (bytes memory) {... */\n    tag_14:\n        /* \"contracts/BoxV1.sol\":370:382  bytes memory */\n      0x60\n        /* \"contracts/BoxV1.sol\":424:448  this.initialize.selector */\n      shl(0xe0, 0xfe4b84df)\n        /* \"contracts/BoxV1.sol\":450:451  1 */\n      0x01\n        /* \"contracts/BoxV1.sol\":401:452  abi.encodeWithSelector(this.initialize.selector, 1) */\n      add(0x24, mload(0x40))\n      tag_25\n      swap2\n      swap1\n      tag_26\n      jump\t// in\n    tag_25:\n      mload(0x40)\n      0x20\n      dup2\n      dup4\n      sub\n      sub\n      dup2\n      mstore\n      swap1\n      0x40\n      mstore\n      swap1\n      not(0xffffffffffffffffffffffffffffffffffffffffffffffffffffffff)\n      and\n      0x20\n      dup3\n      add\n      dup1\n      mload\n      0xffffffffffffffffffffffffffffffffffffffffffffffffffffffff\n      dup4\n      dup2\n      dup4\n      and\n      or\n      dup4\n      mstore\n      pop\n      pop\n      pop\n      pop\n        /* \"contracts/BoxV1.sol\":394:452  return abi.encodeWithSelector(this.initialize.selector, 1) */\n      swap1\n      pop\n        /* \"contracts/BoxV1.sol\":325:459  function showInvoke() external pure returns (bytes memory) {... */\n      swap1\n      jump\t// out\n        /* \"contracts/BoxV1.sol\":182:262  function initialize(uint256 _val) external initializer {... */\n    tag_20:\n        /* \"@openzeppelin/contracts/proxy/utils/Initializable.sol\":4158:4188  InitializableStorage storage $ */\n      0x00\n        /* \"@openzeppelin/contracts/proxy/utils/Initializable.sol\":4191:4217  _getInitializableStorage() */\n      tag_28\n        /* \"@openzeppelin/contracts/proxy/utils/Initializable.sol\":4191:4215  _getInitializableStorage */\n      tag_29\n        /* \"@openzeppelin/contracts/proxy/utils/Initializable.sol\":4191:4217  _getInitializableStorage() */\n      jump\t// in\n    tag_28:\n        /* \"@openzeppelin/contracts/proxy/utils/Initializable.sol\":4158:4217  InitializableStorage storage $ = _getInitializableStorage() */\n      swap1\n      pop\n        /* \"@openzeppelin/contracts/proxy/utils/Initializable.sol\":4279:4298  bool isTopLevelCall */\n      0x00\n        /* \"@openzeppelin/contracts/proxy/utils/Initializable.sol\":4302:4303  $ */\n      dup2\n        /* \"@openzeppelin/contracts/proxy/utils/Initializable.sol\":4302:4317  $._initializing */\n      0x00\n      add\n      0x08\n      swap1\n      sload\n      swap1\n      0x0100\n      exp\n      swap1\n      div\n      0xff\n      and\n        /* \"@openzeppelin/contracts/proxy/utils/Initializable.sol\":4301:4317  !$._initializing */\n      iszero\n        /* \"@openzeppelin/contracts/proxy/utils/Initializable.sol\":4279:4317  bool isTopLevelCall = !$._initializing */\n      swap1\n      pop\n        /* \"@openzeppelin/contracts/proxy/utils/Initializable.sol\":4327:4345  uint64 initialized */\n      0x00\n        /* \"@openzeppelin/contracts/proxy/utils/Initializable.sol\":4348:4349  $ */\n      dup3\n        /* \"@openzeppelin/contracts/proxy/utils/Initializable.sol\":4348:4362  $._initialized */\n      0x00\n      add\n      0x00\n      swap1\n      sload\n      swap1\n      0x0100\n      exp\n      swap1\n      div\n      0xffffffffffffffff\n      and\n        /* \"@openzeppelin/contracts/proxy/utils/Initializable.sol\":4327:4362  uint64 initialized = $._initialized */\n      swap1\n      pop\n        /* \"@openzeppelin/contracts/proxy/utils/Initializable.sol\":4706:4723  bool initialSetup */\n      0x00\n        /* \"@openzeppelin/contracts/proxy/utils/Initializable.sol\":4741:4742  0 */\n      dup1\n        /* \"@openzeppelin/contracts/proxy/utils/Initializable.sol\":4726:4737  initialized */\n      dup3\n        /* \"@openzeppelin/contracts/proxy/utils/Initializable.sol\":4726:4742  initialized == 0 */\n      0xffffffffffffffff\n      and\n      eq\n        /* \"@openzeppelin/contracts/proxy/utils/Initializable.sol\":4726:4760  initialized == 0 && isTopLevelCall */\n      dup1\n      iszero\n      tag_30\n      jumpi\n      pop\n        /* \"@openzeppelin/contracts/proxy/utils/Initializable.sol\":4746:4760  isTopLevelCall */\n      dup3\n        /* \"@openzeppelin/contracts/proxy/utils/Initializable.sol\":4726:4760  initialized == 0 && isTopLevelCall */\n    tag_30:\n        /* \"@openzeppelin/contracts/proxy/utils/Initializable.sol\":4706:4760  bool initialSetup = initialized == 0 && isTopLevelCall */\n      swap1\n      pop\n        /* \"@openzeppelin/contracts/proxy/utils/Initializable.sol\":4770:4787  bool construction */\n      0x00\n        /* \"@openzeppelin/contracts/proxy/utils/Initializable.sol\":4805:4806  1 */\n      0x01\n        /* \"@openzeppelin/contracts/proxy/utils/Initializable.sol\":4790:4801  initialized */\n      dup4\n        /* \"@openzeppelin/contracts/proxy/utils/Initializable.sol\":4790:4806  initialized == 1 */\n      0xffffffffffffffff\n      and\n      eq\n        /* \"@openzeppelin/contracts/proxy/utils/Initializable.sol\":4790:4840  initialized == 1 && address(this).code.length == 0 */\n      dup1\n      iszero\n      tag_31\n      jumpi\n      pop\n        /* \"@openzeppelin/contracts/proxy/utils/Initializable.sol\":4839:4840  0 */\n      0x00\n        /* \"@openzeppelin/contracts/proxy/utils/Initializable.sol\":4818:4822  this */\n      address\n        /* \"@openzeppelin/contracts/proxy/utils/Initializable.sol\":4810:4835  address(this).code.length */\n      0xffffffffffffffffffffffffffffffffffffffff\n      and\n      extcodesize\n        /* \"@openzeppelin/contracts/proxy/utils/Initializable.sol\":4810:4840  address(this).code.length == 0 */\n      eq\n        /* \"@openzeppelin/contracts/proxy/utils/Initializable.sol\":4790:4840  initialized == 1 && address(this).code.length == 0 */\n    tag_31:\n        /* \"@openzeppelin/contracts/proxy/utils/Initializable.sol\":4770:4840  bool construction = initialized == 1 && address(this).code.length == 0 */\n      swap1\n      pop\n        /* \"@openzeppelin/contracts/proxy/utils/Initializable.sol\":4856:4868  initialSetup */\n      dup2\n        /* \"@openzeppelin/contracts/proxy/utils/Initializable.sol\":4855:4868  !initialSetup */\n      iszero\n        /* \"@openzeppelin/contracts/proxy/utils/Initializable.sol\":4855:4885  !initialSetup && !construction */\n      dup1\n      iszero\n      tag_32\n      jumpi\n      pop\n        /* \"@openzeppelin/contracts/proxy/utils/Initializable.sol\":4873:4885  construction */\n      dup1\n        /* \"@openzeppelin/contracts/proxy/utils/Initializable.sol\":4872:4885  !construction */\n      iszero\n        /* \"@openzeppelin/contracts/proxy/utils/Initializable.sol\":4855:4885  !initialSetup && !construction */\n    tag_32:\n        /* \"@openzeppelin/contracts/proxy/utils/Initializable.sol\":4851:4942  if (!initialSetup && !construction) {... */\n      iszero\n      tag_33\n      jumpi\n        /* \"@openzeppelin/contracts/proxy/utils/Initializable.sol\":4908:4931  InvalidInitialization() */\n      mload(0x40)\n      0xf92ee8a900000000000000000000000000000000000000000000000000000000\n      dup2\n      mstore\n      0x04\n      add\n      mload(0x40)\n      dup1\n      swap2\n      sub\n      swap1\n      revert\n        /* \"@openzeppelin/contracts/proxy/utils/Initializable.sol\":4851:4942  if (!initialSetup && !construction) {... */\n    tag_33:\n        /* \"@openzeppelin/contracts/proxy/utils/Initializable.sol\":4968:4969  1 */\n      0x01\n        /* \"@openzeppelin/contracts/proxy/utils/Initializable.sol\":4951:4952  $ */\n      dup6\n        /* \"@openzeppelin/contracts/proxy/utils/Initializable.sol\":4951:4965  $._initialized */\n      0x00\n      add\n      0x00\n        /* \"@openzeppelin/contracts/proxy/utils/Initializable.sol\":4951:4969  $._initialized = 1 */\n      0x0100\n      exp\n      dup2\n      sload\n      dup2\n      0xffffffffffffffff\n      mul\n      not\n      and\n      swap1\n      dup4\n      0xffffffffffffffff\n      and\n      mul\n      or\n      swap1\n      sstore\n      pop\n        /* \"@openzeppelin/contracts/proxy/utils/Initializable.sol\":4983:4997  isTopLevelCall */\n      dup4\n        /* \"@openzeppelin/contracts/proxy/utils/Initializable.sol\":4979:5046  if (isTopLevelCall) {... */\n      iszero\n      tag_34\n      jumpi\n        /* \"@openzeppelin/contracts/proxy/utils/Initializable.sol\":5031:5035  true */\n      0x01\n        /* \"@openzeppelin/contracts/proxy/utils/Initializable.sol\":5013:5014  $ */\n      dup6\n        /* \"@openzeppelin/contracts/proxy/utils/Initializable.sol\":5013:5028  $._initializing */\n      0x00\n      add\n      0x08\n        /* \"@openzeppelin/contracts/proxy/utils/Initializable.sol\":5013:5035  $._initializing = true */\n      0x0100\n      exp\n      dup2\n      sload\n      dup2\n      0xff\n      mul\n      not\n      and\n      swap1\n      dup4\n      iszero\n      iszero\n      mul\n      or\n      swap1\n      sstore\n      pop\n        /* \"@openzeppelin/contracts/proxy/utils/Initializable.sol\":4979:5046  if (isTopLevelCall) {... */\n    tag_34:\n        /* \"contracts/BoxV1.sol\":251:255  _val */\n      dup6\n        /* \"contracts/BoxV1.sol\":247:248  x */\n      0x00\n        /* \"contracts/BoxV1.sol\":247:255  x = _val */\n      dup2\n      swap1\n      sstore\n      pop\n        /* \"@openzeppelin/contracts/proxy/utils/Initializable.sol\":5070:5084  isTopLevelCall */\n      dup4\n        /* \"@openzeppelin/contracts/proxy/utils/Initializable.sol\":5066:5167  if (isTopLevelCall) {... */\n      iszero\n      tag_36\n      jumpi\n        /* \"@openzeppelin/contracts/proxy/utils/Initializable.sol\":5118:5123  false */\n      0x00\n        /* \"@openzeppelin/contracts/proxy/utils/Initializable.sol\":5100:5101  $ */\n      dup6\n        /* \"@openzeppelin/contracts/proxy/utils/Initializable.sol\":5100:5115  $._initializing */\n      0x00\n      add\n      0x08\n        /* \"@openzeppelin/contracts/proxy/utils/Initializable.sol\":5100:5123  $._initializing = false */\n      0x0100\n      exp\n      dup2\n      sload\n      dup2\n      0xff\n      mul\n      not\n      and\n      swap1\n      dup4\n      iszero\n      iszero\n      mul\n      or\n      swap1\n      sstore\n      pop\n        /* \"@openzeppelin/contracts/proxy/utils/Initializable.sol\":5142:5156  Initialized(1) */\n      0xc7f505b2f371ae2175ee4913f4499e1f2633a7b5936321eed1cdaeb6115181d2\n        /* \"@openzeppelin/contracts/proxy/utils/Initializable.sol\":5154:5155  1 */\n      0x01\n        /* \"@openzeppelin/contracts/proxy/utils/Initializable.sol\":5142:5156  Initialized(1) */\n      mload(0x40)\n      tag_37\n      swap2\n      swap1\n      tag_38\n      jump\t// in\n    tag_37:\n      mload(0x40)\n      dup1\n      swap2\n      sub\n      swap1\n      log1\n        /* \"@openzeppelin/contracts/proxy/utils/Initializable.sol\":5066:5167  if (isTopLevelCall) {... */\n    tag_36:\n        /* \"@openzeppelin/contracts/proxy/utils/Initializable.sol\":4092:5173  {... */\n      pop\n      pop\n      pop\n      pop\n      pop\n        /* \"contracts/BoxV1.sol\":182:262  function initialize(uint256 _val) external initializer {... */\n      pop\n      jump\t// out\n        /* \"@openzeppelin/contracts/proxy/utils/Initializable.sol\":8737:8907  function _getInitializableStorage() private pure returns (InitializableStorage storage $) {... */\n    tag_29:\n        /* \"@openzeppelin/contracts/proxy/utils/Initializable.sol\":8795:8825  InitializableStorage storage $ */\n      0x00\n        /* \"@openzeppelin/contracts/proxy/utils/Initializable.sol\":8870:8891  INITIALIZABLE_STORAGE */\n      0xf0c57e16840df040f15088dc2f81fe391c3923bec73e23a9662efc9c229c6a00\n        /* \"@openzeppelin/contracts/proxy/utils/Initializable.sol\":8860:8891  $.slot := INITIALIZABLE_STORAGE */\n      swap1\n      pop\n        /* \"@openzeppelin/contracts/proxy/utils/Initializable.sol\":8737:8907  function _getInitializableStorage() private pure returns (InitializableStorage storage $) {... */\n      swap1\n      jump\t// out\n        /* \"#utility.yul\":7:84   */\n    tag_40:\n        /* \"#utility.yul\":44:51   */\n      0x00\n        /* \"#utility.yul\":73:78   */\n      dup2\n        /* \"#utility.yul\":62:78   */\n      swap1\n      pop\n        /* \"#utility.yul\":7:84   */\n      swap2\n      swap1\n      pop\n      jump\t// out\n        /* \"#utility.yul\":90:208   */\n    tag_41:\n        /* \"#utility.yul\":177:201   */\n      tag_64\n        /* \"#utility.yul\":195:200   */\n      dup2\n        /* \"#utility.yul\":177:201   */\n      tag_40\n      jump\t// in\n    tag_64:\n        /* \"#utility.yul\":172:175   */\n      dup3\n        /* \"#utility.yul\":165:202   */\n      mstore\n        /* \"#utility.yul\":90:208   */\n      pop\n      pop\n      jump\t// out\n        /* \"#utility.yul\":214:436   */\n    tag_10:\n        /* \"#utility.yul\":307:311   */\n      0x00\n        /* \"#utility.yul\":345:347   */\n      0x20\n        /* \"#utility.yul\":334:343   */\n      dup3\n        /* \"#utility.yul\":330:348   */\n      add\n        /* \"#utility.yul\":322:348   */\n      swap1\n      pop\n        /* \"#utility.yul\":358:429   */\n      tag_66\n        /* \"#utility.yul\":426:427   */\n      0x00\n        /* \"#utility.yul\":415:424   */\n      dup4\n        /* \"#utility.yul\":411:428   */\n      add\n        /* \"#utility.yul\":402:408   */\n      dup5\n        /* \"#utility.yul\":358:429   */\n      tag_41\n      jump\t// in\n    tag_66:\n        /* \"#utility.yul\":214:436   */\n      swap3\n      swap2\n      pop\n      pop\n      jump\t// out\n        /* \"#utility.yul\":442:540   */\n    tag_42:\n        /* \"#utility.yul\":493:499   */\n      0x00\n        /* \"#utility.yul\":527:532   */\n      dup2\n        /* \"#utility.yul\":521:533   */\n      mload\n        /* \"#utility.yul\":511:533   */\n      swap1\n      pop\n        /* \"#utility.yul\":442:540   */\n      swap2\n      swap1\n      pop\n      jump\t// out\n        /* \"#utility.yul\":546:714   */\n    tag_43:\n        /* \"#utility.yul\":629:640   */\n      0x00\n        /* \"#utility.yul\":663:669   */\n      dup3\n        /* \"#utility.yul\":658:661   */\n      dup3\n        /* \"#utility.yul\":651:670   */\n      mstore\n        /* \"#utility.yul\":703:707   */\n      0x20\n        /* \"#utility.yul\":698:701   */\n      dup3\n        /* \"#utility.yul\":694:708   */\n      add\n        /* \"#utility.yul\":679:708   */\n      swap1\n      pop\n        /* \"#utility.yul\":546:714   */\n      swap3\n      swap2\n      pop\n      pop\n      jump\t// out\n        /* \"#utility.yul\":720:859   */\n    tag_44:\n        /* \"#utility.yul\":809:815   */\n      dup3\n        /* \"#utility.yul\":804:807   */\n      dup2\n        /* \"#utility.yul\":799:802   */\n      dup4\n        /* \"#utility.yul\":793:816   */\n      mcopy\n        /* \"#utility.yul\":850:851   */\n      0x00\n        /* \"#utility.yul\":841:847   */\n      dup4\n        /* \"#utility.yul\":836:839   */\n      dup4\n        /* \"#utility.yul\":832:848   */\n      add\n        /* \"#utility.yul\":825:852   */\n      mstore\n        /* \"#utility.yul\":720:859   */\n      pop\n      pop\n      pop\n      jump\t// out\n        /* \"#utility.yul\":865:967   */\n    tag_45:\n        /* \"#utility.yul\":906:912   */\n      0x00\n        /* \"#utility.yul\":957:959   */\n      0x1f\n        /* \"#utility.yul\":953:960   */\n      not\n        /* \"#utility.yul\":948:950   */\n      0x1f\n        /* \"#utility.yul\":941:946   */\n      dup4\n        /* \"#utility.yul\":937:951   */\n      add\n        /* \"#utility.yul\":933:961   */\n      and\n        /* \"#utility.yul\":923:961   */\n      swap1\n      pop\n        /* \"#utility.yul\":865:967   */\n      swap2\n      swap1\n      pop\n      jump\t// out\n        /* \"#utility.yul\":973:1346   */\n    tag_46:\n        /* \"#utility.yul\":1059:1062   */\n      0x00\n        /* \"#utility.yul\":1087:1125   */\n      tag_72\n        /* \"#utility.yul\":1119:1124   */\n      dup3\n        /* \"#utility.yul\":1087:1125   */\n      tag_42\n      jump\t// in\n    tag_72:\n        /* \"#utility.yul\":1141:1211   */\n      tag_73\n        /* \"#utility.yul\":1204:1210   */\n      dup2\n        /* \"#utility.yul\":1199:1202   */\n      dup6\n        /* \"#utility.yul\":1141:1211   */\n      tag_43\n      jump\t// in\n    tag_73:\n        /* \"#utility.yul\":1134:1211   */\n      swap4\n      pop\n        /* \"#utility.yul\":1220:1285   */\n      tag_74\n        /* \"#utility.yul\":1278:1284   */\n      dup2\n        /* \"#utility.yul\":1273:1276   */\n      dup6\n        /* \"#utility.yul\":1266:1270   */\n      0x20\n        /* \"#utility.yul\":1259:1264   */\n      dup7\n        /* \"#utility.yul\":1255:1271   */\n      add\n        /* \"#utility.yul\":1220:1285   */\n      tag_44\n      jump\t// in\n    tag_74:\n        /* \"#utility.yul\":1310:1339   */\n      tag_75\n        /* \"#utility.yul\":1332:1338   */\n      dup2\n        /* \"#utility.yul\":1310:1339   */\n      tag_45\n      jump\t// in\n    tag_75:\n        /* \"#utility.yul\":1305:1308   */\n      dup5\n        /* \"#utility.yul\":1301:1340   */\n      add\n        /* \"#utility.yul\":1294:1340   */\n      swap2\n      pop\n        /* \"#utility.yul\":1063:1346   */\n      pop\n        /* \"#utility.yul\":973:1346   */\n      swap3\n      swap2\n      pop\n      pop\n      jump\t// out\n        /* \"#utility.yul\":1352:1661   */\n    tag_16:\n        /* \"#utility.yul\":1463:1467   */\n      0x00\n        /* \"#utility.yul\":1501:1503   */\n      0x20\n        /* \"#utility.yul\":1490:1499   */\n      dup3\n        /* \"#utility.yul\":1486:1504   */\n      add\n        /* \"#utility.yul\":1478:1504   */\n      swap1\n      pop\n        /* \"#utility.yul\":1550:1559   */\n      dup2\n        /* \"#utility.yul\":1544:1548   */\n      dup2\n        /* \"#utility.yul\":1540:1560   */\n      sub\n        /* \"#utility.yul\":1536:1537   */\n      0x00\n        /* \"#utility.yul\":1525:1534   */\n      dup4\n        /* \"#utility.yul\":1521:1538   */\n      add\n        /* \"#utility.yul\":1514:1561   */\n      mstore\n        /* \"#utility.yul\":1578:1654   */\n      tag_77\n        /* \"#utility.yul\":1649:1653   */\n      dup2\n        /* \"#utility.yul\":1640:1646   */\n      dup5\n        /* \"#utility.yul\":1578:1654   */\n      tag_46\n      jump\t// in\n    tag_77:\n        /* \"#utility.yul\":1570:1654   */\n      swap1\n      pop\n        /* \"#utility.yul\":1352:1661   */\n      swap3\n      swap2\n      pop\n      pop\n      jump\t// out\n        /* \"#utility.yul\":1748:1865   */\n    tag_48:\n        /* \"#utility.yul\":1857:1858   */\n      0x00\n        /* \"#utility.yul\":1854:1855   */\n      dup1\n        /* \"#utility.yul\":1847:1859   */\n      revert\n        /* \"#utility.yul\":1994:2116   */\n    tag_50:\n        /* \"#utility.yul\":2067:2091   */\n      tag_82\n        /* \"#utility.yul\":2085:2090   */\n      dup2\n        /* \"#utility.yul\":2067:2091   */\n      tag_40\n      jump\t// in\n    tag_82:\n        /* \"#utility.yul\":2060:2065   */\n      dup2\n        /* \"#utility.yul\":2057:2092   */\n      eq\n        /* \"#utility.yul\":2047:2110   */\n      tag_83\n      jumpi\n        /* \"#utility.yul\":2106:2107   */\n      0x00\n        /* \"#utility.yul\":2103:2104   */\n      dup1\n        /* \"#utility.yul\":2096:2108   */\n      revert\n        /* \"#utility.yul\":2047:2110   */\n    tag_83:\n        /* \"#utility.yul\":1994:2116   */\n      pop\n      jump\t// out\n        /* \"#utility.yul\":2122:2261   */\n    tag_51:\n        /* \"#utility.yul\":2168:2173   */\n      0x00\n        /* \"#utility.yul\":2206:2212   */\n      dup2\n        /* \"#utility.yul\":2193:2213   */\n      calldataload\n        /* \"#utility.yul\":2184:2213   */\n      swap1\n      pop\n        /* \"#utility.yul\":2222:2255   */\n      tag_85\n        /* \"#utility.yul\":2249:2254   */\n      dup2\n        /* \"#utility.yul\":2222:2255   */\n      tag_50\n      jump\t// in\n    tag_85:\n        /* \"#utility.yul\":2122:2261   */\n      swap3\n      swap2\n      pop\n      pop\n      jump\t// out\n        /* \"#utility.yul\":2267:2596   */\n    tag_19:\n        /* \"#utility.yul\":2326:2332   */\n      0x00\n        /* \"#utility.yul\":2375:2377   */\n      0x20\n        /* \"#utility.yul\":2363:2372   */\n      dup3\n        /* \"#utility.yul\":2354:2361   */\n      dup5\n        /* \"#utility.yul\":2350:2373   */\n      sub\n        /* \"#utility.yul\":2346:2378   */\n      slt\n        /* \"#utility.yul\":2343:2462   */\n      iszero\n      tag_87\n      jumpi\n        /* \"#utility.yul\":2381:2460   */\n      tag_88\n      tag_48\n      jump\t// in\n    tag_88:\n        /* \"#utility.yul\":2343:2462   */\n    tag_87:\n        /* \"#utility.yul\":2501:2502   */\n      0x00\n        /* \"#utility.yul\":2526:2579   */\n      tag_89\n        /* \"#utility.yul\":2571:2578   */\n      dup5\n        /* \"#utility.yul\":2562:2568   */\n      dup3\n        /* \"#utility.yul\":2551:2560   */\n      dup6\n        /* \"#utility.yul\":2547:2569   */\n      add\n        /* \"#utility.yul\":2526:2579   */\n      tag_51\n      jump\t// in\n    tag_89:\n        /* \"#utility.yul\":2516:2579   */\n      swap2\n      pop\n        /* \"#utility.yul\":2472:2589   */\n      pop\n        /* \"#utility.yul\":2267:2596   */\n      swap3\n      swap2\n      pop\n      pop\n      jump\t// out\n        /* \"#utility.yul\":2602:2782   */\n    tag_52:\n        /* \"#utility.yul\":2650:2727   */\n      0x4e487b7100000000000000000000000000000000000000000000000000000000\n        /* \"#utility.yul\":2647:2648   */\n      0x00\n        /* \"#utility.yul\":2640:2728   */\n      mstore\n        /* \"#utility.yul\":2747:2751   */\n      0x11\n        /* \"#utility.yul\":2744:2745   */\n      0x04\n        /* \"#utility.yul\":2737:2752   */\n      mstore\n        /* \"#utility.yul\":2771:2775   */\n      0x24\n        /* \"#utility.yul\":2768:2769   */\n      0x00\n        /* \"#utility.yul\":2761:2776   */\n      revert\n        /* \"#utility.yul\":2788:2979   */\n    tag_23:\n        /* \"#utility.yul\":2828:2831   */\n      0x00\n        /* \"#utility.yul\":2847:2867   */\n      tag_92\n        /* \"#utility.yul\":2865:2866   */\n      dup3\n        /* \"#utility.yul\":2847:2867   */\n      tag_40\n      jump\t// in\n    tag_92:\n        /* \"#utility.yul\":2842:2867   */\n      swap2\n      pop\n        /* \"#utility.yul\":2881:2901   */\n      tag_93\n        /* \"#utility.yul\":2899:2900   */\n      dup4\n        /* \"#utility.yul\":2881:2901   */\n      tag_40\n      jump\t// in\n    tag_93:\n        /* \"#utility.yul\":2876:2901   */\n      swap3\n      pop\n        /* \"#utility.yul\":2924:2925   */\n      dup3\n        /* \"#utility.yul\":2921:2922   */\n      dup3\n        /* \"#utility.yul\":2917:2926   */\n      add\n        /* \"#utility.yul\":2910:2926   */\n      swap1\n      pop\n        /* \"#utility.yul\":2945:2948   */\n      dup1\n        /* \"#utility.yul\":2942:2943   */\n      dup3\n        /* \"#utility.yul\":2939:2949   */\n      gt\n        /* \"#utility.yul\":2936:2972   */\n      iszero\n      tag_94\n      jumpi\n        /* \"#utility.yul\":2952:2970   */\n      tag_95\n      tag_52\n      jump\t// in\n    tag_95:\n        /* \"#utility.yul\":2936:2972   */\n    tag_94:\n        /* \"#utility.yul\":2788:2979   */\n      swap3\n      swap2\n      pop\n      pop\n      jump\t// out\n        /* \"#utility.yul\":2985:3070   */\n    tag_53:\n        /* \"#utility.yul\":3030:3037   */\n      0x00\n        /* \"#utility.yul\":3059:3064   */\n      dup2\n        /* \"#utility.yul\":3048:3064   */\n      swap1\n      pop\n        /* \"#utility.yul\":2985:3070   */\n      swap2\n      swap1\n      pop\n      jump\t// out\n        /* \"#utility.yul\":3076:3162   */\n    tag_54:\n        /* \"#utility.yul\":3111:3118   */\n      0x00\n        /* \"#utility.yul\":3151:3155   */\n      0xff\n        /* \"#utility.yul\":3144:3149   */\n      dup3\n        /* \"#utility.yul\":3140:3156   */\n      and\n        /* \"#utility.yul\":3129:3156   */\n      swap1\n      pop\n        /* \"#utility.yul\":3076:3162   */\n      swap2\n      swap1\n      pop\n      jump\t// out\n        /* \"#utility.yul\":3168:3228   */\n    tag_55:\n        /* \"#utility.yul\":3196:3199   */\n      0x00\n        /* \"#utility.yul\":3217:3222   */\n      dup2\n        /* \"#utility.yul\":3210:3222   */\n      swap1\n      pop\n        /* \"#utility.yul\":3168:3228   */\n      swap2\n      swap1\n      pop\n      jump\t// out\n        /* \"#utility.yul\":3234:3388   */\n    tag_56:\n        /* \"#utility.yul\":3290:3299   */\n      0x00\n        /* \"#utility.yul\":3323:3382   */\n      tag_100\n        /* \"#utility.yul\":3339:3381   */\n      tag_101\n        /* \"#utility.yul\":3348:3380   */\n      tag_102\n        /* \"#utility.yul\":3374:3379   */\n      dup5\n        /* \"#utility.yul\":3348:3380   */\n      tag_53\n      jump\t// in\n    tag_102:\n        /* \"#utility.yul\":3339:3381   */\n      tag_55\n      jump\t// in\n    tag_101:\n        /* \"#utility.yul\":3323:3382   */\n      tag_54\n      jump\t// in\n    tag_100:\n        /* \"#utility.yul\":3310:3382   */\n      swap1\n      pop\n        /* \"#utility.yul\":3234:3388   */\n      swap2\n      swap1\n      pop\n      jump\t// out\n        /* \"#utility.yul\":3394:3537   */\n    tag_57:\n        /* \"#utility.yul\":3487:3530   */\n      tag_104\n        /* \"#utility.yul\":3524:3529   */\n      dup2\n        /* \"#utility.yul\":3487:3530   */\n      tag_56\n      jump\t// in\n    tag_104:\n        /* \"#utility.yul\":3482:3485   */\n      dup3\n        /* \"#utility.yul\":3475:3531   */\n      mstore\n        /* \"#utility.yul\":3394:3537   */\n      pop\n      pop\n      jump\t// out\n        /* \"#utility.yul\":3543:3777   */\n    tag_26:\n        /* \"#utility.yul\":3642:3646   */\n      0x00\n        /* \"#utility.yul\":3680:3682   */\n      0x20\n        /* \"#utility.yul\":3669:3678   */\n      dup3\n        /* \"#utility.yul\":3665:3683   */\n      add\n        /* \"#utility.yul\":3657:3683   */\n      swap1\n      pop\n        /* \"#utility.yul\":3693:3770   */\n      tag_106\n        /* \"#utility.yul\":3767:3768   */\n      0x00\n        /* \"#utility.yul\":3756:3765   */\n      dup4\n        /* \"#utility.yul\":3752:3769   */\n      add\n        /* \"#utility.yul\":3743:3749   */\n      dup5\n        /* \"#utility.yul\":3693:3770   */\n      tag_57\n      jump\t// in\n    tag_106:\n        /* \"#utility.yul\":3543:3777   */\n      swap3\n      swap2\n      pop\n      pop\n      jump\t// out\n        /* \"#utility.yul\":3783:3884   */\n    tag_58:\n        /* \"#utility.yul\":3819:3826   */\n      0x00\n        /* \"#utility.yul\":3859:3877   */\n      0xffffffffffffffff\n        /* \"#utility.yul\":3852:3857   */\n      dup3\n        /* \"#utility.yul\":3848:3878   */\n      and\n        /* \"#utility.yul\":3837:3878   */\n      swap1\n      pop\n        /* \"#utility.yul\":3783:3884   */\n      swap2\n      swap1\n      pop\n      jump\t// out\n        /* \"#utility.yul\":3890:4046   */\n    tag_59:\n        /* \"#utility.yul\":3947:3956   */\n      0x00\n        /* \"#utility.yul\":3980:4040   */\n      tag_109\n        /* \"#utility.yul\":3997:4039   */\n      tag_110\n        /* \"#utility.yul\":4006:4038   */\n      tag_111\n        /* \"#utility.yul\":4032:4037   */\n      dup5\n        /* \"#utility.yul\":4006:4038   */\n      tag_53\n      jump\t// in\n    tag_111:\n        /* \"#utility.yul\":3997:4039   */\n      tag_55\n      jump\t// in\n    tag_110:\n        /* \"#utility.yul\":3980:4040   */\n      tag_58\n      jump\t// in\n    tag_109:\n        /* \"#utility.yul\":3967:4040   */\n      swap1\n      pop\n        /* \"#utility.yul\":3890:4046   */\n      swap2\n      swap1\n      pop\n      jump\t// out\n        /* \"#utility.yul\":4052:4197   */\n    tag_60:\n        /* \"#utility.yul\":4146:4190   */\n      tag_113\n        /* \"#utility.yul\":4184:4189   */\n      dup2\n        /* \"#utility.yul\":4146:4190   */\n      tag_59\n      jump\t// in\n    tag_113:\n        /* \"#utility.yul\":4141:4144   */\n      dup3\n        /* \"#utility.yul\":4134:4191   */\n      mstore\n        /* \"#utility.yul\":4052:4197   */\n      pop\n      pop\n      jump\t// out\n        /* \"#utility.yul\":4203:4439   */\n    tag_38:\n        /* \"#utility.yul\":4303:4307   */\n      0x00\n        /* \"#utility.yul\":4341:4343   */\n      0x20\n        /* \"#utility.yul\":4330:4339   */\n      dup3\n        /* \"#utility.yul\":4326:4344   */\n      add\n        /* \"#utility.yul\":4318:4344   */\n      swap1\n      pop\n        /* \"#utility.yul\":4354:4432   */\n      tag_115\n        /* \"#utility.yul\":4429:4430   */\n      0x00\n        /* \"#utility.yul\":4418:4427   */\n      dup4\n        /* \"#utility.yul\":4414:4431   */\n      add\n        /* \"#utility.yul\":4405:4411   */\n      dup5\n        /* \"#utility.yul\":4354:4432   */\n      tag_60\n      jump\t// in\n    tag_115:\n        /* \"#utility.yul\":4203:4439   */\n      swap3\n      swap2\n      pop\n      pop\n      jump\t// out\n\n    auxdata: 0xa2646970667358221220121333edb54492846cdd486af3e21ee881f97e340413818406417aa01c10af3164736f6c634300081a0033\n}\n",
				"bytecode": {
					"linkReferences": {},
					"object": "6080604052348015600e575f80fd5b506105608061001c5f395ff3fe608060405234801561000f575f80fd5b506004361061004a575f3560e01c80630c55699c1461004e57806328b5e32b1461006c57806375beac8714610076578063fe4b84df14610094575b5f80fd5b6100566100b0565b6040516100639190610305565b60405180910390f35b6100746100b5565b005b61007e6100ca565b60405161008b919061038e565b60405180910390f35b6100ae60048036038101906100a991906103dc565b610148565b005b5f5481565b60015f546100c39190610434565b5f81905550565b606063fe4b84df60e01b60016040516024016100e691906104b5565b604051602081830303815290604052907bffffffffffffffffffffffffffffffffffffffffffffffffffffffff19166020820180517bffffffffffffffffffffffffffffffffffffffffffffffffffffffff8381831617835250505050905090565b5f6101516102c6565b90505f815f0160089054906101000a900460ff161590505f825f015f9054906101000a900467ffffffffffffffff1690505f808267ffffffffffffffff161480156101995750825b90505f60018367ffffffffffffffff161480156101cc57505f3073ffffffffffffffffffffffffffffffffffffffff163b145b9050811580156101da575080155b15610211576040517ff92ee8a900000000000000000000000000000000000000000000000000000000815260040160405180910390fd5b6001855f015f6101000a81548167ffffffffffffffff021916908367ffffffffffffffff160217905550831561025e576001855f0160086101000a81548160ff0219169083151502179055505b855f8190555083156102be575f855f0160086101000a81548160ff0219169083151502179055507fc7f505b2f371ae2175ee4913f4499e1f2633a7b5936321eed1cdaeb6115181d260016040516102b59190610511565b60405180910390a15b505050505050565b5f7ff0c57e16840df040f15088dc2f81fe391c3923bec73e23a9662efc9c229c6a00905090565b5f819050919050565b6102ff816102ed565b82525050565b5f6020820190506103185f8301846102f6565b92915050565b5f81519050919050565b5f82825260208201905092915050565b8281835e5f83830152505050565b5f601f19601f8301169050919050565b5f6103608261031e565b61036a8185610328565b935061037a818560208601610338565b61038381610346565b840191505092915050565b5f6020820190508181035f8301526103a68184610356565b905092915050565b5f80fd5b6103bb816102ed565b81146103c5575f80fd5b50565b5f813590506103d6816103b2565b92915050565b5f602082840312156103f1576103f06103ae565b5b5f6103fe848285016103c8565b91505092915050565b7f4e487b71000000000000000000000000000000000000000000000000000000005f52601160045260245ffd5b5f61043e826102ed565b9150610449836102ed565b925082820190508082111561046157610460610407565b5b92915050565b5f819050919050565b5f60ff82169050919050565b5f819050919050565b5f61049f61049a61049584610467565b61047c565b610470565b9050919050565b6104af81610485565b82525050565b5f6020820190506104c85f8301846104a6565b92915050565b5f67ffffffffffffffff82169050919050565b5f6104fb6104f66104f184610467565b61047c565b6104ce565b9050919050565b61050b816104e1565b82525050565b5f6020820190506105245f830184610502565b9291505056fea2646970667358221220121333edb54492846cdd486af3e21ee881f97e340413818406417aa01c10af3164736f6c634300081a0033",
					"opcodes": "PUSH1 0x80 PUSH1 0x40 MSTORE CALLVALUE DUP1 ISZERO PUSH1 0xE JUMPI PUSH0 DUP1 REVERT JUMPDEST POP PUSH2 0x560 DUP1 PUSH2 0x1C PUSH0 CODECOPY PUSH0 RETURN INVALID PUSH1 0x80 PUSH1 0x40 MSTORE CALLVALUE DUP1 ISZERO PUSH2 0xF JUMPI PUSH0 DUP1 REVERT JUMPDEST POP PUSH1 0x4 CALLDATASIZE LT PUSH2 0x4A JUMPI PUSH0 CALLDATALOAD PUSH1 0xE0 SHR DUP1 PUSH4 0xC55699C EQ PUSH2 0x4E JUMPI DUP1 PUSH4 0x28B5E32B EQ PUSH2 0x6C JUMPI DUP1 PUSH4 0x75BEAC87 EQ PUSH2 0x76 JUMPI DUP1 PUSH4 0xFE4B84DF EQ PUSH2 0x94 JUMPI JUMPDEST PUSH0 DUP1 REVERT JUMPDEST PUSH2 0x56 PUSH2 0xB0 JUMP JUMPDEST PUSH1 0x40 MLOAD PUSH2 0x63 SWAP2 SWAP1 PUSH2 0x305 JUMP JUMPDEST PUSH1 0x40 MLOAD DUP1 SWAP2 SUB SWAP1 RETURN JUMPDEST PUSH2 0x74 PUSH2 0xB5 JUMP JUMPDEST STOP JUMPDEST PUSH2 0x7E PUSH2 0xCA JUMP JUMPDEST PUSH1 0x40 MLOAD PUSH2 0x8B SWAP2 SWAP1 PUSH2 0x38E JUMP JUMPDEST PUSH1 0x40 MLOAD DUP1 SWAP2 SUB SWAP1 RETURN JUMPDEST PUSH2 0xAE PUSH1 0x4 DUP1 CALLDATASIZE SUB DUP2 ADD SWAP1 PUSH2 0xA9 SWAP2 SWAP1 PUSH2 0x3DC JUMP JUMPDEST PUSH2 0x148 JUMP JUMPDEST STOP JUMPDEST PUSH0 SLOAD DUP2 JUMP JUMPDEST PUSH1 0x1 PUSH0 SLOAD PUSH2 0xC3 SWAP2 SWAP1 PUSH2 0x434 JUMP JUMPDEST PUSH0 DUP2 SWAP1 SSTORE POP JUMP JUMPDEST PUSH1 0x60 PUSH4 0xFE4B84DF PUSH1 0xE0 SHL PUSH1 0x1 PUSH1 0x40 MLOAD PUSH1 0x24 ADD PUSH2 0xE6 SWAP2 SWAP1 PUSH2 0x4B5 JUMP JUMPDEST PUSH1 0x40 MLOAD PUSH1 0x20 DUP2 DUP4 SUB SUB DUP2 MSTORE SWAP1 PUSH1 0x40 MSTORE SWAP1 PUSH28 0xFFFFFFFFFFFFFFFFFFFFFFFFFFFFFFFFFFFFFFFFFFFFFFFFFFFFFFFF NOT AND PUSH1 0x20 DUP3 ADD DUP1 MLOAD PUSH28 0xFFFFFFFFFFFFFFFFFFFFFFFFFFFFFFFFFFFFFFFFFFFFFFFFFFFFFFFF DUP4 DUP2 DUP4 AND OR DUP4 MSTORE POP POP POP POP SWAP1 POP SWAP1 JUMP JUMPDEST PUSH0 PUSH2 0x151 PUSH2 0x2C6 JUMP JUMPDEST SWAP1 POP PUSH0 DUP2 PUSH0 ADD PUSH1 0x8 SWAP1 SLOAD SWAP1 PUSH2 0x100 EXP SWAP1 DIV PUSH1 0xFF AND ISZERO SWAP1 POP PUSH0 DUP3 PUSH0 ADD PUSH0 SWAP1 SLOAD SWAP1 PUSH2 0x100 EXP SWAP1 DIV PUSH8 0xFFFFFFFFFFFFFFFF AND SWAP1 POP PUSH0 DUP1 DUP3 PUSH8 0xFFFFFFFFFFFFFFFF AND EQ DUP1 ISZERO PUSH2 0x199 JUMPI POP DUP3 JUMPDEST SWAP1 POP PUSH0 PUSH1 0x1 DUP4 PUSH8 0xFFFFFFFFFFFFFFFF AND EQ DUP1 ISZERO PUSH2 0x1CC JUMPI POP PUSH0 ADDRESS PUSH20 0xFFFFFFFFFFFFFFFFFFFFFFFFFFFFFFFFFFFFFFFF AND EXTCODESIZE EQ JUMPDEST SWAP1 POP DUP2 ISZERO DUP1 ISZERO PUSH2 0x1DA JUMPI POP DUP1 ISZERO JUMPDEST ISZERO PUSH2 0x211 JUMPI PUSH1 0x40 MLOAD PUSH32 0xF92EE8A900000000000000000000000000000000000000000000000000000000 DUP2 MSTORE PUSH1 0x4 ADD PUSH1 0x40 MLOAD DUP1 SWAP2 SUB SWAP1 REVERT JUMPDEST PUSH1 0x1 DUP6 PUSH0 ADD PUSH0 PUSH2 0x100 EXP DUP2 SLOAD DUP2 PUSH8 0xFFFFFFFFFFFFFFFF MUL NOT AND SWAP1 DUP4 PUSH8 0xFFFFFFFFFFFFFFFF AND MUL OR SWAP1 SSTORE POP DUP4 ISZERO PUSH2 0x25E JUMPI PUSH1 0x1 DUP6 PUSH0 ADD PUSH1 0x8 PUSH2 0x100 EXP DUP2 SLOAD DUP2 PUSH1 0xFF MUL NOT AND SWAP1 DUP4 ISZERO ISZERO MUL OR SWAP1 SSTORE POP JUMPDEST DUP6 PUSH0 DUP2 SWAP1 SSTORE POP DUP4 ISZERO PUSH2 0x2BE JUMPI PUSH0 DUP6 PUSH0 ADD PUSH1 0x8 PUSH2 0x100 EXP DUP2 SLOAD DUP2 PUSH1 0xFF MUL NOT AND SWAP1 DUP4 ISZERO ISZERO MUL OR SWAP1 SSTORE POP PUSH32 0xC7F505B2F371AE2175EE4913F4499E1F2633A7B5936321EED1CDAEB6115181D2 PUSH1 0x1 PUSH1 0x40 MLOAD PUSH2 0x2B5 SWAP2 SWAP1 PUSH2 0x511 JUMP JUMPDEST PUSH1 0x40 MLOAD DUP1 SWAP2 SUB SWAP1 LOG1 JUMPDEST POP POP POP POP POP POP JUMP JUMPDEST PUSH0 PUSH32 0xF0C57E16840DF040F15088DC2F81FE391C3923BEC73E23A9662EFC9C229C6A00 SWAP1 POP SWAP1 JUMP JUMPDEST PUSH0 DUP2 SWAP1 POP SWAP2 SWAP1 POP JUMP JUMPDEST PUSH2 0x2FF DUP2 PUSH2 0x2ED JUMP JUMPDEST DUP3 MSTORE POP POP JUMP JUMPDEST PUSH0 PUSH1 0x20 DUP3 ADD SWAP1 POP PUSH2 0x318 PUSH0 DUP4 ADD DUP5 PUSH2 0x2F6 JUMP JUMPDEST SWAP3 SWAP2 POP POP JUMP JUMPDEST PUSH0 DUP2 MLOAD SWAP1 POP SWAP2 SWAP1 POP JUMP JUMPDEST PUSH0 DUP3 DUP3 MSTORE PUSH1 0x20 DUP3 ADD SWAP1 POP SWAP3 SWAP2 POP POP JUMP JUMPDEST DUP3 DUP2 DUP4 MCOPY PUSH0 DUP4 DUP4 ADD MSTORE POP POP POP JUMP JUMPDEST PUSH0 PUSH1 0x1F NOT PUSH1 0x1F DUP4 ADD AND SWAP1 POP SWAP2 SWAP1 POP JUMP JUMPDEST PUSH0 PUSH2 0x360 DUP3 PUSH2 0x31E JUMP JUMPDEST PUSH2 0x36A DUP2 DUP6 PUSH2 0x328 JUMP JUMPDEST SWAP4 POP PUSH2 0x37A DUP2 DUP6 PUSH1 0x20 DUP7 ADD PUSH2 0x338 JUMP JUMPDEST PUSH2 0x383 DUP2 PUSH2 0x346 JUMP JUMPDEST DUP5 ADD SWAP2 POP POP SWAP3 SWAP2 POP POP JUMP JUMPDEST PUSH0 PUSH1 0x20 DUP3 ADD SWAP1 POP DUP2 DUP2 SUB PUSH0 DUP4 ADD MSTORE PUSH2 0x3A6 DUP2 DUP5 PUSH2 0x356 JUMP JUMPDEST SWAP1 POP SWAP3 SWAP2 POP POP JUMP JUMPDEST PUSH0 DUP1 REVERT JUMPDEST PUSH2 0x3BB DUP2 PUSH2 0x2ED JUMP JUMPDEST DUP2 EQ PUSH2 0x3C5 JUMPI PUSH0 DUP1 REVERT JUMPDEST POP JUMP JUMPDEST PUSH0 DUP2 CALLDATALOAD SWAP1 POP PUSH2 0x3D6 DUP2 PUSH2 0x3B2 JUMP JUMPDEST SWAP3 SWAP2 POP POP JUMP JUMPDEST PUSH0 PUSH1 0x20 DUP3 DUP5 SUB SLT ISZERO PUSH2 0x3F1 JUMPI PUSH2 0x3F0 PUSH2 0x3AE JUMP JUMPDEST JUMPDEST PUSH0 PUSH2 0x3FE DUP5 DUP3 DUP6 ADD PUSH2 0x3C8 JUMP JUMPDEST SWAP2 POP POP SWAP3 SWAP2 POP POP JUMP JUMPDEST PUSH32 0x4E487B7100000000000000000000000000000000000000000000000000000000 PUSH0 MSTORE PUSH1 0x11 PUSH1 0x4 MSTORE PUSH1 0x24 PUSH0 REVERT JUMPDEST PUSH0 PUSH2 0x43E DUP3 PUSH2 0x2ED JUMP JUMPDEST SWAP2 POP PUSH2 0x449 DUP4 PUSH2 0x2ED JUMP JUMPDEST SWAP3 POP DUP3 DUP3 ADD SWAP1 POP DUP1 DUP3 GT ISZERO PUSH2 0x461 JUMPI PUSH2 0x460 PUSH2 0x407 JUMP JUMPDEST JUMPDEST SWAP3 SWAP2 POP POP JUMP JUMPDEST PUSH0 DUP2 SWAP1 POP SWAP2 SWAP1 POP JUMP JUMPDEST PUSH0 PUSH1 0xFF DUP3 AND SWAP1 POP SWAP2 SWAP1 POP JUMP JUMPDEST PUSH0 DUP2 SWAP1 POP SWAP2 SWAP1 POP JUMP JUMPDEST PUSH0 PUSH2 0x49F PUSH2 0x49A PUSH2 0x495 DUP5 PUSH2 0x467 JUMP JUMPDEST PUSH2 0x47C JUMP JUMPDEST PUSH2 0x470 JUMP JUMPDEST SWAP1 POP SWAP2 SWAP1 POP JUMP JUMPDEST PUSH2 0x4AF DUP2 PUSH2 0x485 JUMP JUMPDEST DUP3 MSTORE POP POP JUMP JUMPDEST PUSH0 PUSH1 0x20 DUP3 ADD SWAP1 POP PUSH2 0x4C8 PUSH0 DUP4 ADD DUP5 PUSH2 0x4A6 JUMP JUMPDEST SWAP3 SWAP2 POP POP JUMP JUMPDEST PUSH0 PUSH8 0xFFFFFFFFFFFFFFFF DUP3 AND SWAP1 POP SWAP2 SWAP1 POP JUMP JUMPDEST PUSH0 PUSH2 0x4FB PUSH2 0x4F6 PUSH2 0x4F1 DUP5 PUSH2 0x467 JUMP JUMPDEST PUSH2 0x47C JUMP JUMPDEST PUSH2 0x4CE JUMP JUMPDEST SWAP1 POP SWAP2 SWAP1 POP JUMP JUMPDEST PUSH2 0x50B DUP2 PUSH2 0x4E1 JUMP JUMPDEST DUP3 MSTORE POP POP JUMP JUMPDEST PUSH0 PUSH1 0x20 DUP3 ADD SWAP1 POP PUSH2 0x524 PUSH0 DUP4 ADD DUP5 PUSH2 0x502 JUMP JUMPDEST SWAP3 SWAP2 POP POP JUMP INVALID LOG2 PUSH5 0x6970667358 0x22 SLT KECCAK256 SLT SGT CALLER 0xED 0xB5 PREVRANDAO SWAP3 DUP5 PUSH13 0xDD486AF3E21EE881F97E340413 DUP2 DUP5 MOD COINBASE PUSH27 0xA01C10AF3164736F6C634300081A00330000000000000000000000 "
				},
				"gasEstimates": {
					"creation": {
						"codeDepositCost": "275200",
						"executionCost": "310",
						"totalCost": "275510"
					},
					"external": {
						"call()": "infinite",
						"initialize(uint256)": "103995",
						"showInvoke()": "infinite",
						"x()": "2402"
					}
				},
				"methodIdentifiers": {
					"call()": "28b5e32b",
					"initialize(uint256)": "fe4b84df",
					"showInvoke()": "75beac87",
					"x()": "0c55699c"
				}
			},
			"storageLayout": {
				"storage": [
					{
						"astId": 260,
						"contract": "contracts/BoxV1.sol:BoxV1",
						"label": "x",
						"offset": 0,
						"slot": "0",
						"type": "t_uint256"
					}
				],
				"types": {
					"t_uint256": {
						"encoding": "inplace",
						"label": "uint256",
						"numberOfBytes": "32"
					}
				}
			},
			"userdoc": {
				"kind": "user",
				"methods": {},
				"version": 1
			}
		}
	}
}